{
  "abi": [
    {
      "inputs": [
        {
          "internalType": "string",
          "name": "_baseURI",
          "type": "string"
        },
        {
          "internalType": "uint256",
          "name": "_maxID",
          "type": "uint256"
        }
      ],
      "stateMutability": "nonpayable",
      "type": "constructor"
    },
    {
      "inputs": [],
      "name": "MintingNotEnabled",
      "type": "error"
    },
    {
      "inputs": [],
      "name": "TokenDoesNotExist",
      "type": "error"
    },
    {
      "anonymous": false,
      "inputs": [
        {
          "indexed": true,
          "internalType": "address",
          "name": "owner",
          "type": "address"
        },
        {
          "indexed": true,
          "internalType": "address",
          "name": "operator",
          "type": "address"
        },
        {
          "indexed": false,
          "internalType": "bool",
          "name": "approved",
          "type": "bool"
        }
      ],
      "name": "ApprovalForAll",
      "type": "event"
    },
    {
      "anonymous": false,
      "inputs": [
        {
          "indexed": false,
          "internalType": "string",
          "name": "newBaseURI",
          "type": "string"
        }
      ],
      "name": "BaseURIUpdated",
      "type": "event"
    },
    {
      "anonymous": false,
      "inputs": [
        {
          "indexed": false,
          "internalType": "bool",
          "name": "newEnabled",
          "type": "bool"
        }
      ],
      "name": "EnabledUpdated",
      "type": "event"
    },
    {
      "anonymous": false,
      "inputs": [
        {
          "indexed": false,
          "internalType": "uint256",
          "name": "newMaxID",
          "type": "uint256"
        }
      ],
      "name": "MaxIDUpdated",
      "type": "event"
    },
    {
      "anonymous": false,
      "inputs": [
        {
          "indexed": true,
          "internalType": "address",
          "name": "user",
          "type": "address"
        },
        {
          "indexed": true,
          "internalType": "address",
          "name": "newOwner",
          "type": "address"
        }
      ],
      "name": "OwnerUpdated",
      "type": "event"
    },
    {
      "anonymous": false,
      "inputs": [
        {
          "indexed": true,
          "internalType": "address",
          "name": "operator",
          "type": "address"
        },
        {
          "indexed": true,
          "internalType": "address",
          "name": "from",
          "type": "address"
        },
        {
          "indexed": true,
          "internalType": "address",
          "name": "to",
          "type": "address"
        },
        {
          "indexed": false,
          "internalType": "uint256[]",
          "name": "ids",
          "type": "uint256[]"
        },
        {
          "indexed": false,
          "internalType": "uint256[]",
          "name": "amounts",
          "type": "uint256[]"
        }
      ],
      "name": "TransferBatch",
      "type": "event"
    },
    {
      "anonymous": false,
      "inputs": [
        {
          "indexed": true,
          "internalType": "address",
          "name": "operator",
          "type": "address"
        },
        {
          "indexed": true,
          "internalType": "address",
          "name": "from",
          "type": "address"
        },
        {
          "indexed": true,
          "internalType": "address",
          "name": "to",
          "type": "address"
        },
        {
          "indexed": false,
          "internalType": "uint256",
          "name": "id",
          "type": "uint256"
        },
        {
          "indexed": false,
          "internalType": "uint256",
          "name": "amount",
          "type": "uint256"
        }
      ],
      "name": "TransferSingle",
      "type": "event"
    },
    {
      "anonymous": false,
      "inputs": [
        {
          "indexed": false,
          "internalType": "string",
          "name": "value",
          "type": "string"
        },
        {
          "indexed": true,
          "internalType": "uint256",
          "name": "id",
          "type": "uint256"
        }
      ],
      "name": "URI",
      "type": "event"
    },
    {
      "inputs": [
        {
          "internalType": "address",
          "name": "",
          "type": "address"
        },
        {
          "internalType": "uint256",
          "name": "",
          "type": "uint256"
        }
      ],
      "name": "balanceOf",
      "outputs": [
        {
          "internalType": "uint256",
          "name": "",
          "type": "uint256"
        }
      ],
      "stateMutability": "view",
      "type": "function"
    },
    {
      "inputs": [
        {
          "internalType": "address[]",
          "name": "owners",
          "type": "address[]"
        },
        {
          "internalType": "uint256[]",
          "name": "ids",
          "type": "uint256[]"
        }
      ],
      "name": "balanceOfBatch",
      "outputs": [
        {
          "internalType": "uint256[]",
          "name": "balances",
          "type": "uint256[]"
        }
      ],
      "stateMutability": "view",
      "type": "function"
    },
    {
      "inputs": [],
      "name": "baseURI",
      "outputs": [
        {
          "internalType": "string",
          "name": "",
          "type": "string"
        }
      ],
      "stateMutability": "view",
      "type": "function"
    },
    {
      "inputs": [],
      "name": "enabled",
      "outputs": [
        {
          "internalType": "bool",
          "name": "",
          "type": "bool"
        }
      ],
      "stateMutability": "view",
      "type": "function"
    },
    {
      "inputs": [
        {
          "internalType": "address",
          "name": "",
          "type": "address"
        },
        {
          "internalType": "address",
          "name": "",
          "type": "address"
        }
      ],
      "name": "isApprovedForAll",
      "outputs": [
        {
          "internalType": "bool",
          "name": "",
          "type": "bool"
        }
      ],
      "stateMutability": "view",
      "type": "function"
    },
    {
      "inputs": [],
      "name": "maxID",
      "outputs": [
        {
          "internalType": "uint256",
          "name": "",
          "type": "uint256"
        }
      ],
      "stateMutability": "view",
      "type": "function"
    },
    {
      "inputs": [
        {
          "internalType": "uint256",
          "name": "id",
          "type": "uint256"
        }
      ],
      "name": "mint",
      "outputs": [],
      "stateMutability": "nonpayable",
      "type": "function"
    },
    {
      "inputs": [],
      "name": "owner",
      "outputs": [
        {
          "internalType": "address",
          "name": "",
          "type": "address"
        }
      ],
      "stateMutability": "view",
      "type": "function"
    },
    {
      "inputs": [
        {
          "internalType": "address",
          "name": "from",
          "type": "address"
        },
        {
          "internalType": "address",
          "name": "to",
          "type": "address"
        },
        {
          "internalType": "uint256[]",
          "name": "ids",
          "type": "uint256[]"
        },
        {
          "internalType": "uint256[]",
          "name": "amounts",
          "type": "uint256[]"
        },
        {
          "internalType": "bytes",
          "name": "data",
          "type": "bytes"
        }
      ],
      "name": "safeBatchTransferFrom",
      "outputs": [],
      "stateMutability": "nonpayable",
      "type": "function"
    },
    {
      "inputs": [
        {
          "internalType": "address",
          "name": "from",
          "type": "address"
        },
        {
          "internalType": "address",
          "name": "to",
          "type": "address"
        },
        {
          "internalType": "uint256",
          "name": "id",
          "type": "uint256"
        },
        {
          "internalType": "uint256",
          "name": "amount",
          "type": "uint256"
        },
        {
          "internalType": "bytes",
          "name": "data",
          "type": "bytes"
        }
      ],
      "name": "safeTransferFrom",
      "outputs": [],
      "stateMutability": "nonpayable",
      "type": "function"
    },
    {
      "inputs": [
        {
          "internalType": "address",
          "name": "operator",
          "type": "address"
        },
        {
          "internalType": "bool",
          "name": "approved",
          "type": "bool"
        }
      ],
      "name": "setApprovalForAll",
      "outputs": [],
      "stateMutability": "nonpayable",
      "type": "function"
    },
    {
      "inputs": [
        {
          "internalType": "string",
          "name": "_baseURI",
          "type": "string"
        }
      ],
      "name": "setBaseURI",
      "outputs": [],
      "stateMutability": "nonpayable",
      "type": "function"
    },
    {
      "inputs": [
        {
          "internalType": "bool",
          "name": "_enabled",
          "type": "bool"
        }
      ],
      "name": "setEnabled",
      "outputs": [],
      "stateMutability": "nonpayable",
      "type": "function"
    },
    {
      "inputs": [
        {
          "internalType": "uint256",
          "name": "_maxID",
          "type": "uint256"
        }
      ],
      "name": "setMaxID",
      "outputs": [],
      "stateMutability": "nonpayable",
      "type": "function"
    },
    {
      "inputs": [
        {
          "internalType": "address",
          "name": "newOwner",
          "type": "address"
        }
      ],
      "name": "setOwner",
      "outputs": [],
      "stateMutability": "nonpayable",
      "type": "function"
    },
    {
      "inputs": [
        {
          "internalType": "bytes4",
          "name": "interfaceId",
          "type": "bytes4"
        }
      ],
      "name": "supportsInterface",
      "outputs": [
        {
          "internalType": "bool",
          "name": "",
          "type": "bool"
        }
      ],
      "stateMutability": "view",
      "type": "function"
    },
    {
      "inputs": [
        {
          "internalType": "uint256",
          "name": "id",
          "type": "uint256"
        }
      ],
      "name": "uri",
      "outputs": [
        {
          "internalType": "string",
          "name": "",
          "type": "string"
        }
      ],
      "stateMutability": "view",
      "type": "function"
    }
  ],
  "bytecode": {
    "object": "0x60806040523480156200001157600080fd5b5060405162001afc38038062001afc8339810160408190526200003491620000b1565b600080546001600160a01b031916339081178255604051909182917f8292fce18fa69edf4db7b94ea2e58241df0ae57f97e0a6c9b29067028bf92d76908290a350600362000083838262000225565b50600455506005805460ff19166001179055620002f1565b634e487b7160e01b600052604160045260246000fd5b60008060408385031215620000c557600080fd5b82516001600160401b0380821115620000dd57600080fd5b818501915085601f830112620000f257600080fd5b8151818111156200010757620001076200009b565b604051601f8201601f19908116603f011681019083821181831017156200013257620001326200009b565b816040528281526020935088848487010111156200014f57600080fd5b600091505b8282101562000173578482018401518183018501529083019062000154565b82821115620001855760008484830101525b969092015195979596505050505050565b600181811c90821680620001ab57607f821691505b602082108103620001cc57634e487b7160e01b600052602260045260246000fd5b50919050565b601f8211156200022057600081815260208120601f850160051c81016020861015620001fb5750805b601f850160051c820191505b818110156200021c5782815560010162000207565b5050505b505050565b81516001600160401b038111156200024157620002416200009b565b620002598162000252845462000196565b84620001d2565b602080601f831160018114620002915760008415620002785750858301515b600019600386901b1c1916600185901b1785556200021c565b600085815260208120601f198616915b82811015620002c257888601518255948401946001909101908401620002a1565b5085821015620002e15787850151600019600388901b60f8161c191681555b5050505050600190811b01905550565b6117fb80620003016000396000f3fe608060405234801561001057600080fd5b506004361061010a5760003560e01c806355f804b3116100a2578063a0712d6811610071578063a0712d6814610251578063a22cb46514610264578063e985e9c514610277578063ecacaf0b146102a5578063f242432a146102ae57600080fd5b806355f804b3146101f857806359672c0e1461020b5780636c0360eb1461021e5780638da5cb5b1461022657600080fd5b8063238dafe0116100de578063238dafe0146101a55780632eb2c2d6146101b2578063328d8f72146101c55780634e1273f4146101d857600080fd5b8062fdd58e1461010f57806301ffc9a71461014d5780630e89341c1461017057806313af403514610190575b600080fd5b61013a61011d366004610ecd565b600160209081526000928352604080842090915290825290205481565b6040519081526020015b60405180910390f35b61016061015b366004610f10565b6102c1565b6040519015158152602001610144565b61018361017e366004610f34565b610313565b6040516101449190610fa5565b6101a361019e366004610fb8565b61036d565b005b6005546101609060ff1681565b6101a36101c0366004611061565b6103eb565b6101a36101d336600461112c565b610692565b6101eb6101e6366004611147565b610704565b60405161014491906111b3565b6101a361020636600461120d565b61083a565b6101a3610219366004610f34565b6108a0565b6101836108ff565b600054610239906001600160a01b031681565b6040516001600160a01b039091168152602001610144565b6101a361025f366004610f34565b61098d565b6101a36102723660046112be565b6109f4565b6101606102853660046112f1565b600260209081526000928352604080842090915290825290205460ff1681565b61013a60045481565b6101a36102bc36600461131b565b610a60565b60006301ffc9a760e01b6001600160e01b0319831614806102f25750636cdb3d1360e11b6001600160e01b03198316145b8061030d57506303a24d0760e21b6001600160e01b03198316145b92915050565b6060816004548111156103395760405163677510db60e11b815260040160405180910390fd5b600361034484610c5e565b6040516020016103559291906113c7565b60405160208183030381529060405291505b50919050565b6000546001600160a01b031633146103a05760405162461bcd60e51b81526004016103979061144e565b60405180910390fd5b600080546001600160a01b0319166001600160a01b0383169081178255604051909133917f8292fce18fa69edf4db7b94ea2e58241df0ae57f97e0a6c9b29067028bf92d769190a350565b84831461042c5760405162461bcd60e51b815260206004820152600f60248201526e0988a9c8ea890be9a92a69a82a8869608b1b6044820152606401610397565b336001600160a01b038916148061046657506001600160a01b038816600090815260026020908152604080832033845290915290205460ff165b6104a35760405162461bcd60e51b815260206004820152600e60248201526d1393d517d055551213d49256915160921b6044820152606401610397565b60008060005b87811015610562578888828181106104c3576104c3611474565b9050602002013592508686828181106104de576104de611474565b6001600160a01b038e1660009081526001602090815260408083208984528252822080549390910294909401359550859392509061051d9084906114a0565b90915550506001600160a01b038a166000908152600160209081526040808320868452909152812080548492906105559084906114b7565b90915550506001016104a9565b50886001600160a01b03168a6001600160a01b0316336001600160a01b03167f4a39dc06d4c0dbc64b70af90fd698a233a518aa5d07e595d983b8c0526c8f7fb8b8b8b8b6040516105b69493929190611505565b60405180910390a46001600160a01b0389163b1561065d5760405163bc197c8160e01b808252906001600160a01b038b169063bc197c819061060a9033908f908e908e908e908e908e908e90600401611560565b6020604051808303816000875af1158015610629573d6000803e3d6000fd5b505050506040513d601f19601f8201168201806040525081019061064d91906115c4565b6001600160e01b0319161461066a565b6001600160a01b03891615155b6106865760405162461bcd60e51b8152600401610397906115e1565b50505050505050505050565b6000546001600160a01b031633146106bc5760405162461bcd60e51b81526004016103979061144e565b6005805460ff19168215159081179091556040519081527f6ea132e58e92fcbabe09d2e3e0e989869373669b749d418bae60cfbc0a12fd02906020015b60405180910390a150565b60608382146107475760405162461bcd60e51b815260206004820152600f60248201526e0988a9c8ea890be9a92a69a82a8869608b1b6044820152606401610397565b8367ffffffffffffffff811115610760576107606111f7565b604051908082528060200260200182016040528015610789578160200160208202803683370190505b50905060005b8481101561083157600160008787848181106107ad576107ad611474565b90506020020160208101906107c29190610fb8565b6001600160a01b03166001600160a01b0316815260200190815260200160002060008585848181106107f6576107f6611474565b9050602002013581526020019081526020016000205482828151811061081e5761081e611474565b602090810291909101015260010161078f565b50949350505050565b6000546001600160a01b031633146108645760405162461bcd60e51b81526004016103979061144e565b60036108708282611656565b507f6741b2fc379fad678116fe3d4d4b9a1a184ab53ba36b86ad0fa66340b1ab41ad816040516106f99190610fa5565b6000546001600160a01b031633146108ca5760405162461bcd60e51b81526004016103979061144e565b60048190556040518181527f31a015d5774ea4299c3b65d82aa389e42a2b6203fa4cf011cf60b71c625bf61c906020016106f9565b6003805461090c90611393565b80601f016020809104026020016040519081016040528092919081815260200182805461093890611393565b80156109855780601f1061095a57610100808354040283529160200191610985565b820191906000526020600020905b81548152906001019060200180831161096857829003601f168201915b505050505081565b806004548111156109b15760405163677510db60e11b815260040160405180910390fd5b60055460ff166109d457604051630732158d60e31b815260040160405180910390fd5b6109f03383600160405180602001604052806000815250610d67565b5050565b3360008181526002602090815260408083206001600160a01b03871680855290835292819020805460ff191686151590811790915590519081529192917f17307eab39ab6107e8899845ad3d59bd9653f200f220920489ca2b5937696c31910160405180910390a35050565b336001600160a01b0387161480610a9a57506001600160a01b038616600090815260026020908152604080832033845290915290205460ff165b610ad75760405162461bcd60e51b815260206004820152600e60248201526d1393d517d055551213d49256915160921b6044820152606401610397565b6001600160a01b038616600090815260016020908152604080832087845290915281208054859290610b0a9084906114a0565b90915550506001600160a01b038516600090815260016020908152604080832087845290915281208054859290610b429084906114b7565b909155505060408051858152602081018590526001600160a01b03808816929089169133917fc3d58168c5ae7397731d063d5bbf3d657854427343f4c083240f7aacaa2d0f62910160405180910390a46001600160a01b0385163b15610c2d5760405163f23a6e6160e01b808252906001600160a01b0387169063f23a6e6190610bda9033908b908a908a908a908a90600401611716565b6020604051808303816000875af1158015610bf9573d6000803e3d6000fd5b505050506040513d601f19601f82011682018060405250810190610c1d91906115c4565b6001600160e01b03191614610c3a565b6001600160a01b03851615155b610c565760405162461bcd60e51b8152600401610397906115e1565b505050505050565b606081600003610c855750506040805180820190915260018152600360fc1b602082015290565b8160005b8115610caf5780610c998161175d565b9150610ca89050600a8361178c565b9150610c89565b60008167ffffffffffffffff811115610cca57610cca6111f7565b6040519080825280601f01601f191660200182016040528015610cf4576020820181803683370190505b5090505b8415610d5f57610d096001836114a0565b9150610d16600a866117a0565b610d219060306114b7565b60f81b818381518110610d3657610d36611474565b60200101906001600160f81b031916908160001a905350610d58600a8661178c565b9450610cf8565b949350505050565b6001600160a01b038416600090815260016020908152604080832086845290915281208054849290610d9a9084906114b7565b909155505060408051848152602081018490526001600160a01b0386169160009133917fc3d58168c5ae7397731d063d5bbf3d657854427343f4c083240f7aacaa2d0f62910160405180910390a46001600160a01b0384163b15610e825760405163f23a6e6160e01b808252906001600160a01b0386169063f23a6e6190610e2f9033906000908990899089906004016117b4565b6020604051808303816000875af1158015610e4e573d6000803e3d6000fd5b505050506040513d601f19601f82011682018060405250810190610e7291906115c4565b6001600160e01b03191614610e8f565b6001600160a01b03841615155b610eab5760405162461bcd60e51b8152600401610397906115e1565b50505050565b80356001600160a01b0381168114610ec857600080fd5b919050565b60008060408385031215610ee057600080fd5b610ee983610eb1565b946020939093013593505050565b6001600160e01b031981168114610f0d57600080fd5b50565b600060208284031215610f2257600080fd5b8135610f2d81610ef7565b9392505050565b600060208284031215610f4657600080fd5b5035919050565b60005b83811015610f68578181015183820152602001610f50565b83811115610eab5750506000910152565b60008151808452610f91816020860160208601610f4d565b601f01601f19169290920160200192915050565b602081526000610f2d6020830184610f79565b600060208284031215610fca57600080fd5b610f2d82610eb1565b60008083601f840112610fe557600080fd5b50813567ffffffffffffffff811115610ffd57600080fd5b6020830191508360208260051b850101111561101857600080fd5b9250929050565b60008083601f84011261103157600080fd5b50813567ffffffffffffffff81111561104957600080fd5b60208301915083602082850101111561101857600080fd5b60008060008060008060008060a0898b03121561107d57600080fd5b61108689610eb1565b975061109460208a01610eb1565b9650604089013567ffffffffffffffff808211156110b157600080fd5b6110bd8c838d01610fd3565b909850965060608b01359150808211156110d657600080fd5b6110e28c838d01610fd3565b909650945060808b01359150808211156110fb57600080fd5b506111088b828c0161101f565b999c989b5096995094979396929594505050565b80358015158114610ec857600080fd5b60006020828403121561113e57600080fd5b610f2d8261111c565b6000806000806040858703121561115d57600080fd5b843567ffffffffffffffff8082111561117557600080fd5b61118188838901610fd3565b9096509450602087013591508082111561119a57600080fd5b506111a787828801610fd3565b95989497509550505050565b6020808252825182820181905260009190848201906040850190845b818110156111eb578351835292840192918401916001016111cf565b50909695505050505050565b634e487b7160e01b600052604160045260246000fd5b60006020828403121561121f57600080fd5b813567ffffffffffffffff8082111561123757600080fd5b818401915084601f83011261124b57600080fd5b81358181111561125d5761125d6111f7565b604051601f8201601f19908116603f01168101908382118183101715611285576112856111f7565b8160405282815287602084870101111561129e57600080fd5b826020860160208301376000928101602001929092525095945050505050565b600080604083850312156112d157600080fd5b6112da83610eb1565b91506112e86020840161111c565b90509250929050565b6000806040838503121561130457600080fd5b61130d83610eb1565b91506112e860208401610eb1565b60008060008060008060a0878903121561133457600080fd5b61133d87610eb1565b955061134b60208801610eb1565b94506040870135935060608701359250608087013567ffffffffffffffff81111561137557600080fd5b61138189828a0161101f565b979a9699509497509295939492505050565b600181811c908216806113a757607f821691505b60208210810361036757634e487b7160e01b600052602260045260246000fd5b60008084546113d581611393565b600182811680156113ed576001811461140257611431565b60ff1984168752821515830287019450611431565b8860005260208060002060005b858110156114285781548a82015290840190820161140f565b50505082870194505b505050508351611445818360208801610f4d565b01949350505050565b6020808252600c908201526b15539055551213d49256915160a21b604082015260600190565b634e487b7160e01b600052603260045260246000fd5b634e487b7160e01b600052601160045260246000fd5b6000828210156114b2576114b261148a565b500390565b600082198211156114ca576114ca61148a565b500190565b81835260006001600160fb1b038311156114e857600080fd5b8260051b8083602087013760009401602001938452509192915050565b6040815260006115196040830186886114cf565b828103602084015261152c8185876114cf565b979650505050505050565b81835281816020850137506000828201602090810191909152601f909101601f19169091010190565b6001600160a01b0389811682528816602082015260a06040820181905260009061158d908301888a6114cf565b82810360608401526115a08187896114cf565b905082810360808401526115b5818587611537565b9b9a5050505050505050505050565b6000602082840312156115d657600080fd5b8151610f2d81610ef7565b60208082526010908201526f155394d0519157d49150d2541251539560821b604082015260600190565b601f82111561165157600081815260208120601f850160051c810160208610156116325750805b601f850160051c820191505b81811015610c565782815560010161163e565b505050565b815167ffffffffffffffff811115611670576116706111f7565b6116848161167e8454611393565b8461160b565b602080601f8311600181146116b957600084156116a15750858301515b600019600386901b1c1916600185901b178555610c56565b600085815260208120601f198616915b828110156116e8578886015182559484019460019091019084016116c9565b50858210156117065787850151600019600388901b60f8161c191681555b5050505050600190811b01905550565b6001600160a01b03878116825286166020820152604081018590526060810184905260a0608082018190526000906117519083018486611537565b98975050505050505050565b60006001820161176f5761176f61148a565b5060010190565b634e487b7160e01b600052601260045260246000fd5b60008261179b5761179b611776565b500490565b6000826117af576117af611776565b500690565b6001600160a01b03868116825285166020820152604081018490526060810183905260a06080820181905260009061152c90830184610f7956fea164736f6c634300080f000a",
    "linkReferences": {}
  },
  "methodIdentifiers": {
    "balanceOf(address,uint256)": "00fdd58e",
    "balanceOfBatch(address[],uint256[])": "4e1273f4",
    "baseURI()": "6c0360eb",
    "enabled()": "238dafe0",
    "isApprovedForAll(address,address)": "e985e9c5",
    "maxID()": "ecacaf0b",
    "mint(uint256)": "a0712d68",
    "owner()": "8da5cb5b",
    "safeBatchTransferFrom(address,address,uint256[],uint256[],bytes)": "2eb2c2d6",
    "safeTransferFrom(address,address,uint256,uint256,bytes)": "f242432a",
    "setApprovalForAll(address,bool)": "a22cb465",
    "setBaseURI(string)": "55f804b3",
    "setEnabled(bool)": "328d8f72",
    "setMaxID(uint256)": "59672c0e",
    "setOwner(address)": "13af4035",
    "supportsInterface(bytes4)": "01ffc9a7",
    "uri(uint256)": "0e89341c"
  },
  "id": 8
}