{
  "abi": [
    {
      "inputs": [
        {
          "internalType": "address",
          "name": "webbAddress",
          "type": "address"
        }
      ],
      "stateMutability": "nonpayable",
      "type": "constructor"
    },
    {
      "inputs": [],
      "name": "mintAll",
      "outputs": [],
      "stateMutability": "nonpayable",
      "type": "function"
    },
    {
      "inputs": [],
      "name": "mintAllWithBatchTransfer",
      "outputs": [],
      "stateMutability": "nonpayable",
      "type": "function"
    },
    {
      "inputs": [],
      "name": "mintAllWithTransfer",
      "outputs": [],
      "stateMutability": "nonpayable",
      "type": "function"
    },
    {
      "inputs": [
        {
          "internalType": "address",
          "name": "",
          "type": "address"
        },
        {
          "internalType": "address",
          "name": "",
          "type": "address"
        },
        {
          "internalType": "uint256[]",
          "name": "",
          "type": "uint256[]"
        },
        {
          "internalType": "uint256[]",
          "name": "",
          "type": "uint256[]"
        },
        {
          "internalType": "bytes",
          "name": "",
          "type": "bytes"
        }
      ],
      "name": "onERC1155BatchReceived",
      "outputs": [
        {
          "internalType": "bytes4",
          "name": "",
          "type": "bytes4"
        }
      ],
      "stateMutability": "nonpayable",
      "type": "function"
    },
    {
      "inputs": [
        {
          "internalType": "address",
          "name": "",
          "type": "address"
        },
        {
          "internalType": "address",
          "name": "",
          "type": "address"
        },
        {
          "internalType": "uint256",
          "name": "",
          "type": "uint256"
        },
        {
          "internalType": "uint256",
          "name": "",
          "type": "uint256"
        },
        {
          "internalType": "bytes",
          "name": "",
          "type": "bytes"
        }
      ],
      "name": "onERC1155Received",
      "outputs": [
        {
          "internalType": "bytes4",
          "name": "",
          "type": "bytes4"
        }
      ],
      "stateMutability": "nonpayable",
      "type": "function"
    }
  ],
  "bytecode": {
    "object": "0x608060405234801561001057600080fd5b5060405161084838038061084883398101604081905261002f91610054565b600080546001600160a01b0319166001600160a01b0392909216919091179055610084565b60006020828403121561006657600080fd5b81516001600160a01b038116811461007d57600080fd5b9392505050565b6107b5806100936000396000f3fe608060405234801561001057600080fd5b50600436106100575760003560e01c8063595882b31461005c578063a933b9b214610066578063bc197c811461006e578063ddb17d3e146100ad578063f23a6e61146100b5575b600080fd5b6100646100d5565b005b6100646100df565b61009061007c366004610553565b63bc197c8160e01b98975050505050505050565b6040516001600160e01b0319909116815260200160405180910390f35b610064610269565b6100906100c336600461060e565b63f23a6e6160e01b9695505050505050565b6100dd610269565b565b60008060009054906101000a90046001600160a01b03166001600160a01b031663ecacaf0b6040518163ffffffff1660e01b81526004016020604051808303816000875af1158015610135573d6000803e3d6000fd5b505050506040513d601f19601f820116820180604052508101906101599190610686565b905060005b818110156102655760006101738260016106b5565b60005460405163140e25ad60e31b8152600481018390529192506001600160a01b03169063a0712d6890602401600060405180830381600087803b1580156101ba57600080fd5b505af11580156101ce573d6000803e3d6000fd5b505060008054604051637921219560e11b8152306004820152336024820152604481018690526001606482015260a0608482015260a48101929092526001600160a01b0316925063f242432a915060c401600060405180830381600087803b15801561023957600080fd5b505af115801561024d573d6000803e3d6000fd5b5050505050808061025d906106cd565b91505061015e565b5050565b60008060009054906101000a90046001600160a01b03166001600160a01b031663ecacaf0b6040518163ffffffff1660e01b81526004016020604051808303816000875af11580156102bf573d6000803e3d6000fd5b505050506040513d601f19601f820116820180604052508101906102e39190610686565b905060008167ffffffffffffffff811115610300576103006106e6565b604051908082528060200260200182016040528015610329578160200160208202803683370190505b50905060008267ffffffffffffffff811115610347576103476106e6565b604051908082528060200260200182016040528015610370578160200160208202803683370190505b50905060005b8381101561043b57600061038b8260016106b5565b60005460405163140e25ad60e31b8152600481018390529192506001600160a01b03169063a0712d6890602401600060405180830381600087803b1580156103d257600080fd5b505af11580156103e6573d6000803e3d6000fd5b50505050808483815181106103fd576103fd6106fc565b602002602001018181525050600183838151811061041d5761041d6106fc565b60209081029190910101525080610433816106cd565b915050610376565b50600054604051631759616b60e11b81526001600160a01b0390911690632eb2c2d69061047290309033908790879060040161074d565b600060405180830381600087803b15801561048c57600080fd5b505af11580156104a0573d6000803e3d6000fd5b50505050505050565b80356001600160a01b03811681146104c057600080fd5b919050565b60008083601f8401126104d757600080fd5b50813567ffffffffffffffff8111156104ef57600080fd5b6020830191508360208260051b850101111561050a57600080fd5b9250929050565b60008083601f84011261052357600080fd5b50813567ffffffffffffffff81111561053b57600080fd5b60208301915083602082850101111561050a57600080fd5b60008060008060008060008060a0898b03121561056f57600080fd5b610578896104a9565b975061058660208a016104a9565b9650604089013567ffffffffffffffff808211156105a357600080fd5b6105af8c838d016104c5565b909850965060608b01359150808211156105c857600080fd5b6105d48c838d016104c5565b909650945060808b01359150808211156105ed57600080fd5b506105fa8b828c01610511565b999c989b5096995094979396929594505050565b60008060008060008060a0878903121561062757600080fd5b610630876104a9565b955061063e602088016104a9565b94506040870135935060608701359250608087013567ffffffffffffffff81111561066857600080fd5b61067489828a01610511565b979a9699509497509295939492505050565b60006020828403121561069857600080fd5b5051919050565b634e487b7160e01b600052601160045260246000fd5b600082198211156106c8576106c861069f565b500190565b6000600182016106df576106df61069f565b5060010190565b634e487b7160e01b600052604160045260246000fd5b634e487b7160e01b600052603260045260246000fd5b600081518084526020808501945080840160005b8381101561074257815187529582019590820190600101610726565b509495945050505050565b6001600160a01b0385811682528416602082015260a06040820181905260009061077990830185610712565b828103606084015261078b8185610712565b83810360809094019390935250506000815260200194935050505056fea164736f6c634300080f000a",
    "linkReferences": {}
  },
  "methodIdentifiers": {
    "mintAll()": "595882b3",
    "mintAllWithBatchTransfer()": "ddb17d3e",
    "mintAllWithTransfer()": "a933b9b2",
    "onERC1155BatchReceived(address,address,uint256[],uint256[],bytes)": "bc197c81",
    "onERC1155Received(address,address,uint256,uint256,bytes)": "f23a6e61"
  },
  "id": 8
}