{
  "abi": [
    {
      "inputs": [
        {
          "internalType": "address",
          "name": "webbAddress",
          "type": "address"
        }
      ],
      "stateMutability": "nonpayable",
      "type": "constructor"
    },
    {
      "inputs": [],
      "name": "mintAll",
      "outputs": [],
      "stateMutability": "nonpayable",
      "type": "function"
    },
    {
      "inputs": [
        {
          "internalType": "address",
          "name": "",
          "type": "address"
        },
        {
          "internalType": "address",
          "name": "",
          "type": "address"
        },
        {
          "internalType": "uint256[]",
          "name": "",
          "type": "uint256[]"
        },
        {
          "internalType": "uint256[]",
          "name": "",
          "type": "uint256[]"
        },
        {
          "internalType": "bytes",
          "name": "",
          "type": "bytes"
        }
      ],
      "name": "onERC1155BatchReceived",
      "outputs": [
        {
          "internalType": "bytes4",
          "name": "",
          "type": "bytes4"
        }
      ],
      "stateMutability": "nonpayable",
      "type": "function"
    },
    {
      "inputs": [
        {
          "internalType": "address",
          "name": "",
          "type": "address"
        },
        {
          "internalType": "address",
          "name": "",
          "type": "address"
        },
        {
          "internalType": "uint256",
          "name": "",
          "type": "uint256"
        },
        {
          "internalType": "uint256",
          "name": "",
          "type": "uint256"
        },
        {
          "internalType": "bytes",
          "name": "",
          "type": "bytes"
        }
      ],
      "name": "onERC1155Received",
      "outputs": [
        {
          "internalType": "bytes4",
          "name": "",
          "type": "bytes4"
        }
      ],
      "stateMutability": "nonpayable",
      "type": "function"
    }
  ],
  "bytecode": {
    "object": "0x608060405234801561001057600080fd5b5060405161068e38038061068e83398101604081905261002f91610054565b600080546001600160a01b0319166001600160a01b0392909216919091179055610084565b60006020828403121561006657600080fd5b81516001600160a01b038116811461007d57600080fd5b9392505050565b6105fb806100936000396000f3fe608060405234801561001057600080fd5b50600436106100415760003560e01c8063595882b314610046578063bc197c8114610050578063f23a6e611461008f575b600080fd5b61004e6100af565b005b61007261005e366004610399565b63bc197c8160e01b98975050505050505050565b6040516001600160e01b0319909116815260200160405180910390f35b61007261009d366004610454565b63f23a6e6160e01b9695505050505050565b60008060009054906101000a90046001600160a01b03166001600160a01b031663ecacaf0b6040518163ffffffff1660e01b81526004016020604051808303816000875af1158015610105573d6000803e3d6000fd5b505050506040513d601f19601f8201168201806040525081019061012991906104cc565b905060008167ffffffffffffffff811115610146576101466104e5565b60405190808252806020026020018201604052801561016f578160200160208202803683370190505b50905060008267ffffffffffffffff81111561018d5761018d6104e5565b6040519080825280602002602001820160405280156101b6578160200160208202803683370190505b50905060005b838110156102815760006101d1826001610511565b60005460405163140e25ad60e31b8152600481018390529192506001600160a01b03169063a0712d6890602401600060405180830381600087803b15801561021857600080fd5b505af115801561022c573d6000803e3d6000fd5b505050508084838151811061024357610243610529565b602002602001018181525050600183838151811061026357610263610529565b602090810291909101015250806102798161053f565b9150506101bc565b50600054604051631759616b60e11b81526001600160a01b0390911690632eb2c2d6906102b8903090339087908790600401610593565b600060405180830381600087803b1580156102d257600080fd5b505af11580156102e6573d6000803e3d6000fd5b50505050505050565b80356001600160a01b038116811461030657600080fd5b919050565b60008083601f84011261031d57600080fd5b50813567ffffffffffffffff81111561033557600080fd5b6020830191508360208260051b850101111561035057600080fd5b9250929050565b60008083601f84011261036957600080fd5b50813567ffffffffffffffff81111561038157600080fd5b60208301915083602082850101111561035057600080fd5b60008060008060008060008060a0898b0312156103b557600080fd5b6103be896102ef565b97506103cc60208a016102ef565b9650604089013567ffffffffffffffff808211156103e957600080fd5b6103f58c838d0161030b565b909850965060608b013591508082111561040e57600080fd5b61041a8c838d0161030b565b909650945060808b013591508082111561043357600080fd5b506104408b828c01610357565b999c989b5096995094979396929594505050565b60008060008060008060a0878903121561046d57600080fd5b610476876102ef565b9550610484602088016102ef565b94506040870135935060608701359250608087013567ffffffffffffffff8111156104ae57600080fd5b6104ba89828a01610357565b979a9699509497509295939492505050565b6000602082840312156104de57600080fd5b5051919050565b634e487b7160e01b600052604160045260246000fd5b634e487b7160e01b600052601160045260246000fd5b60008219821115610524576105246104fb565b500190565b634e487b7160e01b600052603260045260246000fd5b600060018201610551576105516104fb565b5060010190565b600081518084526020808501945080840160005b838110156105885781518752958201959082019060010161056c565b509495945050505050565b6001600160a01b0385811682528416602082015260a0604082018190526000906105bf90830185610558565b82810360608401526105d18185610558565b83810360809094019390935250506000815260200194935050505056fea164736f6c634300080f000a",
    "linkReferences": {}
  },
  "methodIdentifiers": {
    "mintAll()": "595882b3",
    "onERC1155BatchReceived(address,address,uint256[],uint256[],bytes)": "bc197c81",
    "onERC1155Received(address,address,uint256,uint256,bytes)": "f23a6e61"
  },
  "id": 8
}